:020000040C00EE
:100000000088FE1F0102000891020008910200080A
:10001000910200089102000891020008000000000F
:100020000000000000000000000000009102000835
:10003000910200080000000091020008F56C02081F
:100040009102000891020008910200089102000844
:100050009102000891020008910200089102000834
:1000600091020008000000000000000000000000F5
:1000700091020008000000009102000891020008AF
:100080009102000891020008910200089102000804
:1000900091020008910200089102000891020008F4
:1000A00091020008910200089102000891020008E4
:1000B00091020008910200089102000891020008D4
:1000C00091020008910200089102000891020008C4
:1000D00091020008910200089102000891020008B4
:1000E00091020008910200089102000891020008A4
:1000F0009102000891020008910200089102000894
:100100009102000891020008910200089102000883
:100110009102000891020008910200089102000873
:10012000399F020851A202089102000891020008BA
:100130009102000891020008910200089102000853
:100140009102000891020008910200089102000843
:100150009102000891020008910200089102000833
:10016000000000000000000000000000000000008F
:100170009102000891020008910200089102000813
:100180009102000891020008910200089102000803
:1001900091020008910200089102000891020008F3
:1001A00091020008910200089102000891020008E3
:1001B00091020008910200089102000891020008D3
:1001C00091020008910200089102000891020008C3
:1001D000910200089102000891020008000000004E
:1001E0009102000821710208910200087569020855
:1001F00091020008000000002D71020800000000BC
:10020000DFF870D01C4880471C4C1D4DAC4209DA09
:1002100021686268A368043BA2BFC858D050FAE7BF
:100220000C34F3E7174B184CA34208DA19685A68E4
:100230000020043AA4BF8850FBE70833F4E71348D2
:1002400080470000941F030C0088FE1FE00E000092
:10025000941F030C0088FE1F00000000E096FE1FA4
:100260004C4402002CDB0020000E00002CE9002092
:10027000000000000088FE1FD904020844020008A4
:100280005C0200085C020008740200089DCA0208B3
:04029000FEE7000085
:020000040C02EC
:100000002DE9F0434668DFF84C9080467068B0B147
:1000100033464A46002101311F69D3F818C0D3F88E
:1000200014E0DC69DD68956081429761C2F810C018
:10003000C2F80CE003F1140342F8144FEBD131681D
:10004000034BD8F800201A6089E80300BDE8F0836C
:10005000E096FE1F0088FE1F004870470088FE1FC4
:1000600001464C2201480EF09FBD00BFE496FE1FE2
:1000700001494C220EF098BDE496FE1F00487047DF
:10008000E496FE1FC3680269022B10B4C46935BF31
:100090000021022104230623013AB4F57A7F98BF98
:1000A0000B46042A026AC16B88BF0833012A4269E1
:1000B00002F1FF3288BF2033092A826B88BF803368
:1000C000B2F57A7F026C88BF03F580738A4207D845
:1000D000142A98BF03F500738A4238BF03F5806382
:1000E000426BC16AB2F57A7F026B88BF03F5006389
:1000F0008A420BD341F28834A24212D88A4208D8ED
:1001000003F5005318465DF8044B704703F5805320
:10011000F6E7002BF6D1012242705DF8044B184639
:1001200070478A4203F58053EAD918465DF8044BBC
:10013000704700BF004870477497FE1F0048704723
:100140003097FE1F08B50449044844220EF01CFDF8
:10015000003018BF012008BD7497FE1F3097FE1FA6
:1001600008B50349034844220EF01EFD08BD00BF38
:100170007497FE1F3097FE1F2DE9F84F1C4C1D4E43
:10018000204600214C220EF01AFD44251A4BDFF8C0
:1001900074E063644FF0040C052364272A46174972
:1001A00063604FF0020B4FF05A0A4FF47A794FF028
:1001B00032083046A3602361A361C4F840C0C4F88C
:1001C00048E0C4F814B0C4F82CA0C4F83090C4F8C7
:1001D0003880E76167630EF0E7FC31462A4608483D
:1001E0000EF0E2FC012363700020BDE8F88F00BF31
:1001F000E496FE1F7497FE1F462DFF3FD0080308AC
:100200003097FE1F00004842004870476C88FE1F70
:1002100084B038B50B4CA56A0DF1100E8EE80F00B6
:1002200015B1204600F0F2F904AD0FCD054C0FC416
:100230000FCD0FC495E80F0084E80F00BDE83840EB
:1002400004B070476C88FE1F10B50446FFF772FFBC
:10025000C369236090F82030237190F821306371D6
:1002600010BD00BF68B110B50446FFF763FF2368F7
:10027000C361237980F82030637980F82130002031
:1002800010BD0220704700BF10B50446FFF752FFB3
:10029000D0ED017AFCEEE77AC4ED007A90F82530D3
:1002A000237110BD80B110B50446FFF743FFD4EDB4
:1002B000007AF8EE677A0123C0ED017A227980F89E
:1002C00025200364002010BD0220704710B50446AD
:1002D000FFF730FF90ED027AD0ED037A0B4ABCEEC7
:1002E000C77AFCEEE77A002384ED007AC4ED017A48
:1002F000237290F825306372016822614FF47A739B
:1003000003FB01F3E360626110BD00BFA086010042
:1003100020B138B5047A1CB1202038BD02207047C6
:100320000546FFF707FFD5ED007AB8EE677AD5ED01
:10033000017A80ED027AF8EE677A0346C0ED037A1F
:100340006A7A80F8252001222046DA6338BD00BF92
:10035000004870473C09030810B50446FFF7EAFE61
:100360004269C16A84E8060090F8302022720223B4
:10037000637210BD20B1437A022B03D00B2070476B
:100380000220704710B50446FFF7D4FE94E80C0035
:10039000C2624361237A80F83030002010BD00BF74
:1003A0002DE9F04107460E46FFF7C4FE8369012B95
:1003B00003D000243470BDE8F081FFF74DFED0F883
:1003C00000E0BEF1000FF4D000239FED147A1C462C
:1003D00003E00133DBB27345ECD203EB830200EBA5
:1003E000820202F108019568002DF2D0D2ED047A64
:1003F000D1F80480D2F818C0516965017A1967EE06
:10040000877A013301347B51E4B2C2F80880C2F824
:1004100004C0C2ED057AD160DCE700BF66666640C5
:10042000044BD3ED007AFCEEE77A17EE903A0380A6
:10043000704700BFE096FE1F10B400214FF4807497
:1004400002224FF07E5304604171027183605DF8B7
:10045000044B70471C4BDB68D90310B51DD51B4BF3
:10046000DB68DA072CD51A48184A13685B0716D4DC
:10047000936803F07F030133B0FBF3F3124A15498D
:10048000D0681269C0B202F0010201300132B3FB40
:10049000F0F0B0FBF2F0086010BD0D4BEEE7916894
:1004A00093689468C1F303620132C4F30641C3F355
:1004B000062301FB0222B0FBF2F003FB0003DDE7A1
:1004C00008F030FAD0E700BF004600501047005057
:1004D00000366E01C0FF032010B54FF000530FCB64
:1004E000034C84E80F0007F0B9F908F01FFA10BDBB
:1004F000C4FF0320836A5BB110B44469006904FB44
:1005000001F100FB0212134418465DF8044B7047DA
:10051000184670472DE9F041BDF824E0BDF81C7085
:10052000BDF82060BDF818508380BEF1010448BFBB
:100530000EF10604E410013407EB060E4FF0000C38
:100540001FFA8EFE4FF00108022C04814580A0F8AE
:1005500006E080F82C80C0F824C0C0F820C0C0F8A5
:1005600018C080F800C02BD005FB03F30EFB03F38B
:1005700003FB04F3022FC3618162C26017D8022E0D
:1005800015D8002936D05AB39A4231D30B460022EF
:1005900003F8012B01334A7003F8012B05FB04F427
:1005A0000EFB04F11A7001614461BDE8F08105227F
:1005B000002380F82C208362C360C361BDE8F08112
:1005C000B742D1D1022E1DD0012ECDD1047005FB32
:1005D00003F30EFB03F35B00C3618162C260CEE7ED
:1005E00004238262C260C26180F82C30BDE8F081D1
:1005F0000322DDE705FB04F40EFB04F30361446111
:10060000BDE8F08104270770E1E700BF0622002360
:1006100080F82C20C361704770B506460D4600F087
:1006200043FE044608B1022070BD2B681F4A013BFF
:10063000934201D9502070BD2B790C2B01D0512051
:1006400070BDFFF777FD8369012B13D0FFF772FDB3
:10065000C26907EE902AF8EE677A214617EE902AD3
:10066000304600F09FFD0028E4D12846FFF7FAFD50
:10067000002070BDFFF75EFD90ED0B7ADFED0C6A98
:10068000D5ED007AB8EE477AF8EE677A27EE267A4B
:100690003046C7EE277A67EEA67AFCEEE77A17EEC9
:1006A000901A00F025FD0028C4D1DEE75FE31600B4
:1006B00000007A4429B108B50846FFF7C5FD0020BF
:1006C00008BD4FF4004070470048704750090308C8
:1006D0002DE9F0419AB000241AAE0C600F4646F89E
:1006E000404DFFF749FD0DF1260E054633463846CD
:1006F00021462246CDF800E000F094FA2843A042BB
:1007000003DD08201AB0BDE8F0810BA8FFF724FE36
:10071000204600F0CFFD9DF83430002BF1D00C9B2B
:10072000002BEED00B9A511EFF29EAD8402BE8D8B7
:1007300002FB03F5FFF70CFE427B1E49AB0002FBF8
:1007400003F3B3F5004F0B60DBD8BDF82C2000920B
:100750000DF1380802220C21BDF8303001924046DC
:10076000029203914FF40042134912AEFFF7D2FEFA
:100770000FCE6D460FC596E80F0085E80F0098E88C
:100780000F00FFF745FDFFF7D5FC0B9BC362FFF79A
:10079000D1FCC06A09F01CFDFFF7CCFC0C9B436147
:1007A000184609F01BFD384600F0DCFB034B1C60CB
:1007B000A8E700BFB897FE1F284B0020C497FE1F74
:1007C00038B50C46FFF7C4FD05460FCD0FC42B68A6
:1007D0002360002038BD00BF09B10720704738B53D
:1007E0000C46154609F0E8FCDFED057A07EE100A25
:1007F00067EE277A2046FDEEE77AC5ED007A38BD30
:1008000000007A4409B10620704738B50C461546F9
:1008100009F0D8FCDFED057A07EE100A67EE277ABB
:100820002046FDEEE77AC5ED007A38BD00007A4437
:1008300010B50C46FFF77EFC02684FF47A7303FB99
:1008400002F32360002010BD70B50D46FFF772FC67
:1008500090F8242040F6B833012A0CBF1C464FF410
:100860007A74FFF767FC4669FFF764FC0268C832D8
:1008700006FB024303F53B5320332B60002070BD81
:1008800070B505460C4600F00FFD08B1022070BDA2
:10089000637A022B01D00B2070BD237A032B01D980
:1008A000062070BD63685A1E3F2A01D9082070BD1A
:1008B0002668721EFF2AF9D8012B05D0FFF73AFCF3
:1008C0008369002BF2D02668B6F5807F07D0802E92
:1008D00005D0402E03D0202E01D0502070BDFFF750
:1008E00029FC07EE906A9FED166AB8EE677AD0EDA4
:1008F000007AF8EE676A67EE067A0121C7EEA67AFB
:100900002846FCEEE77AF8EE677A17EE902A00F0B8
:1009100049FC94E8280003FB05F5FFF719FD427B2D
:100920000849AB0002FB03F3B3F5004F0B60BDD8E1
:100930002046FFF71FFD044B0020186070BD00BF6C
:1009400000247449B897FE1FC497FE1F08B50846D7
:10095000FFF702FD002008BD70B584B001A80D4668
:100960001446FFF7F9FCFFF74FFC064600F09CFC2D
:1009700001282FD009F0F8F91B4A13681A4C002BF4
:10098000FBD0B36A2B60FFF7E3FC029A417B9DF832
:100990000C302973AA602B76FFF7CCFB002690F869
:1009A00020306B76AE7609F01BFC0123EB76686095
:1009B00009F002FCDFED0D7A019B266007EE100ABC
:1009C00067EE277A3046FDEEE77A2B61C5ED057AB2
:1009D00004B070BD044A002CCFD11368002BCCD1D9
:1009E000042004B070BD00BFC497FE1F00007A440D
:1009F00070B51E480C4609F04DF9002000F05AFC75
:100A00000CB9204670BDFFF795FB90F8242040F606
:100A1000B833012A0CBF1D464FF47A75FFF78AFBE5
:100A20004669FFF787FB0268C83206FB025303F5ED
:100A30003B5320339C4201D2052070BD642101FB51
:100A400004F10A4806F068F805460028F4D1FFF7DB
:100A500071FB846209F0CAFB054B01201D6000F0A8
:100A600029FC024809F022F9284670BD7889FE1F4A
:100A7000C497FE1F4FF40040704700BF0846FFF7C1
:100A8000DBBC00BF024800214FF400620EF097B8B3
:100A900028CB00202DE9F04F8DB00391002A40F0C3
:100AA00083805A4B04461A60204605A90122FFF7AD
:100AB00053FF0028F8D10746FFF73CFB4FF4807244
:100AC000C36AB2FBF3F30093FFF79EFB39463A4645
:100AD0008046FFF70FFD3A46064601214046FFF7E4
:100AE00009FD3A46054602214046FFF703FD3A4616
:100AF000044603214046FFF7FDFC009B4449DFF814
:100B00001CB1DFF81CA14FEA4308C8F10002B94646
:100B10008B18CDF800800192023E023D023C871EF8
:100B20000293C84618E0029B36F8020F23F809002A
:100B3000DBF8000035F802EF20F802E0DAF80000F8
:100B400034F802EF334B20F802E0186837F802EF70
:100B500020F802E008F10108FFF7ECFA009BC06AF8
:100B60009944019B804509EB0302DCD3039B33B11D
:100B7000264A0123136000200DB0BDE8F08F4FF42A
:100B800000602549042209F07FF8039820494FF4BA
:100B9000006209F077F84FF400601F49042209F061
:100BA00071F809F073F8E3E718681B4C039B2060A9
:100BB0006BB16588FFF762FA24880585632CDAD863
:100BC000FFF75CFA446200200DB0BDE8F08F09F039
:100BD0005FF898B90E494FF4006209F055F800200B
:100BE0000B494FF4006209F04DF84FF400600A49D8
:100BF000042209F047F809F049F8DAE703990448B4
:100C00004FF400620DF0DBFFE9E700BFA888FE1F8C
:100C100028CB0020A488FE1FBC97FE1F9C88FE1FC7
:100C2000A088FE1F2DE9F041069F0D461E469AB191
:100C3000D9B11E4CB4F80280FFF720FA2588A0F83D
:100C40002880632D02D8FFF719FA456204233B8000
:100C500000203460BDE8F08171B14FF40062144BA4
:100C60003A8000203360BDE8F08109F011F80F4CA4
:100C700058B1A8462560DFE709F00AF870B90C49B9
:100C80004FF4006209F000F8E7E74FF400602146F6
:100C9000042208F0F9FFB4F80280CDE729464FF4AA
:100CA000006203480DF08BFFD7E700BFBC97FE1F23
:100CB00028CB002038B50C467AB1264D00232B6096
:100CC00049B31C46FFF7DAF92D880485632D02D855
:100CD000FFF7D4F94562002038BD11461E484FF495
:100CE00000620DF06CFF002CF5D14FF40060194943
:100CF000042208F0C9FF204617494FF4006208F0AB
:100D0000C1FF4FF400601349042208F0BBFF08F054
:100D1000BDFF002038BD08F0BBFFA0B90E494FF45D
:100D2000006208F0B1FF00200B494FF4006208F0A8
:100D3000A9FF4FF400600749042208F0A3FF08F060
:100D4000A5FF6C88BEE721464FF4006202480DF013
:100D500036FFE8E7BC97FE1F28CB0020F0B52DED4D
:100D6000048B044695B008F065FFFFF7E7F994F8A7
:100D70002630012B054659D008F028FD2A68236843
:100D80009A424AD0FFF7D6F98669012E00F0B58065
:100D900060696B69834204D009F020FA012009F0F0
:100DA0000BFCE06AEB6A834201D009F011FA236C74
:100DB000002B40F08380E36B002B3AD1A36B002B18
:100DC00075D16A6963699A4222D0FFF71DFA08AEAD
:100DD000A38A816AC268A08D009002240C25304647
:100DE0000194029403950CADFFF794FB0FCD6C4674
:100DF0000FC495E80F0084E80F0096E80F00FFF796
:100E000007FA08F069FE002015B0BDEC048BF0BDB8
:100E1000EA6AE36A9A42D8D1F3E7EA6AE36A9A4255
:100E2000B0D160696B698342B6D1C0E708F0CCFCF1
:100E3000A4E794ED039A94ED028ADFED458A39EE3A
:100E4000488AFFF777F988EE288AC9EE287A80ED7C
:100E5000048A17EE900A0DF003F809F0BDFB18EEB6
:100E6000100A09F027FCD4ED027AC7EEA87A17EE33
:100E7000900A0CF0F5FFD4ED037AC7EEA87A064687
:100E80000F4617EE900A0CF0EBFF0B460246394670
:100E9000304609F0D1FB012009F08EFB94F82500C3
:100EA00008F090FC0023E363A36B002B89D094F837
:100EB000240009F0A1F90023A36382E794F8250038
:100EC00008F080FC94ED018AFFF734F983698BB94F
:100ED0009FED1F7ADFED1F7A88EE078AB4EEE78A6E
:100EE000F1EE10FA06DBDFED1C7AB4EEE78AF1EEE4
:100EF00010FA22D9002323645DE7206809F0E0FBA3
:100F0000304609F059FB94ED007ADFED147AD4ED08
:100F10000B6A1348B8EE477AF8EE666A67EE277AEE
:100F2000C7EEA67AFCEEE77A17EE901A05F0F4FD0C
:100F300000283FF42DAF0C2066E718EE100A0CF0E5
:100F40008FFF09F049FB012009F036FBD2E700BF13
:100F500000007A4400B2BB460042BD460000C842D1
:100F6000C48FFE1F2DE9F0432DED028B85B00024C8
:100F700006460394FFF7DEF8D0ED028A9FED4D8A16
:100F8000FFF7D8F8D0ED037AC8EE888A012587EEFE
:100F9000888A18EE100A0CF063FF8046894618EE26
:100FA000900A0CF05DFF42464B4609F045FBFFF707
:100FB000C1F8DFED417A8561B4EEE78AF1EE10FA0F
:100FC00006DBDFED3E7AB4EEE78AF1EE10FA54D993
:100FD0000C24FFF719F9002108F06AFE08F00EFC56
:100FE00005463046FFF74EFD0DF10A0700210A467F
:100FF00003AB00973046FFF715FE03AB012200213B
:10100000044300973046FFF70DFEA4B2204340EAA8
:101010000504FFF78FF88569FFF78CF890ED078AD4
:10102000274AB8EE488AA4B2FCEEC87A17EE903A86
:10103000013B934206D90220204305B0BDEC028B50
:10104000BDE8F0831F48EDB208F024FE012D1CD04E
:10105000DFED1D7A87EE888ABCEEC88A18EE101A7A
:10106000184805F059FD00280CBF0020022020433D
:1010700005B0BDEC028BBDE8F0834046494609F05F
:10108000ABFA284609F098FAA3E7FFF753F8D0ED3A
:10109000008A9FED0E8AF8EE687A67EE888AFFF77D
:1010A00049F890ED0B8AB8EE488A88EE888ABCEE43
:1010B000C88AD3E700007A4400B2BB460042BD466E
:1010C0005FE31600C48FFE1F20BCBE4C0000C84268
:1010D00010B50446FFF72EF8836A0BB9022010BD45
:1010E000FFF728F8816A2046BDE81040FFF780BC72
:1010F00010B52DED028B0C46FFF71CF88369012B10
:1011000029D0FFF717F80460FFF714F8006809F01A
:10111000D7FA224808F0BEFDFFF70CF890ED008AE0
:10112000DFED1F7AB8EE488A28EE278AFFF702F82B
:10113000D0ED0B7A1948F8EE677A88EE278AFCEE34
:10114000C87A17EE901A05F0E7FC044608B30C20A5
:10115000BDEC028B10BDA4F1320240F686339A42F8
:10116000CFD8B4F5967FCCD2FEF7E4FFC36AB3F5CF
:10117000807FECD8952CC4D8FEF7DCFFC36A802BA7
:10118000E5D84A2CBDD8FEF7D5FFC36A402BDED880
:10119000B7E7012009F010FA2046D9E7C48FFE1FF7
:1011A0000000C84207EE902ABCEEE77A38B517EE89
:1011B000103A1D4A013B93422DED028B03D9BDEC41
:1011C000028B022038BD0D46184817EE904A08F0F1
:1011D00061FD012D13D0DFED167A07EE104AC7EE40
:1011E000877AFCEEE77A114817EE901A05F094FC26
:1011F000BDEC028B00280CBF0020022038BDFEF79A
:1012000099FF90ED008A9FED0B7AF8EE487A27EE71
:10121000878AFEF78FFFD0ED0B7AF8EE677AC8EE7B
:10122000277AFCEEE77ADEE75FE31600C48FFE1F45
:1012300020BCBE4C0000C84251B1012808B503D003
:10124000022801D0022008BD08F0DCFF002008BD04
:101250000220704710B5144605290ED8DFE801F0CA
:10126000160D0D1B0F03FEF7CFFF002108F020FD28
:1012700008F0BCFF0A4B00221A60002010BDFEF7E8
:1012800061FF0028F9D0074808F004FD2046BDE8BA
:101290001040FFF763BD08F063FA002010BD00BFE7
:1012A000C497FE1FC48FFE1F014B1878704700BF04
:1012B000C097FE1F014B1870704700BFC097FE1FFC
:1012C00038B50D46FFF7F0FF044608B1022038BDDF
:1012D0002968084B084A0B44934201D9092038BDBC
:1012E0002B79072B01D90A2038BD2846FEF7DAFFF3
:1012F000204638BD586891FE400D030008B50846E9
:10130000FEF7C2FF002008BD38B50D46FFF7CCFF41
:1013100008B1022038BD2968194B1A4A0B44934280
:1013200001D9092038BD6868154B03449342F8D8A9
:101330008142F6D8431A07EE903A9FED137AF8EE01
:10134000677AC7EE877AB7EE007AF4EEC77AF1EEE5
:1013500010FAE6D49FED0D7AF4EEC77AF1EE10FAAA
:10136000DFDC2C7A0CB1202038BD6B7A072B01D939
:101370000A2038BD2846FEF7CBFF204638BD00BF07
:10138000586891FE400D030000007A440000484375
:1013900008B50846FEF79AFF002008BD70B52DED90
:1013A000028B84B001A80E46FEF7D6FFFEF7C2FE00
:1013B00090ED038AFEF7BEFE90ED027ADFED127A21
:1013C00038EE478A4FF47A7528EE278AFCEEC87A01
:1013D00017EE904AFEF7AEFE019BC1690B4AB2FBC5
:1013E000F1F203FB02F2B4FBF2F002FB104305FB47
:1013F00003F3B3FBF2F405FB00440020346004B0B7
:10140000BDEC028B70BD00BF00002042005A62029A
:1014100010B50C46FEF78EFE90F82430A34207D09C
:10142000FEF788FE01238363FEF784FE80F82440E4
:10143000002010BD10B50C46FEF77CFE90F824305D
:10144000237010BD08B5FEF775FE002380F8263026
:1014500008BD00BF08B5FEF76DFE012380F82630F9
:1014600008BD00BF08B5FEF765FE90F8260008BD70
:10147000072901D95220704700B583B00191FEF7CA
:1014800059FE01994184FEF755FE01234363002074
:1014900003B05DF804FB00BF10B50C46FEF74AFE32
:1014A000438C2380002010BD2DE9F04794B00C46FA
:1014B0004C22002101A80DF082FB01A8FEF7D8FD07
:1014C000A07C94F815A094F81390B4F8168094F8C2
:1014D00014C094F800E06788A688E589E18822892D
:1014E000238A049001A8CDF824A0CDF81490CDF85B
:1014F0002080CDF81CC0CDF818E00C970D960E9505
:10150000109111920F93FEF7BDFD044618B10C2007
:1015100014B0BDE8F08701A8FEF7A2FD204614B084
:10152000BDE8F087F8B50C46FEF7A8FD034600209D
:10153000DA68A2741A6A62751A69E2749A69D3F851
:101540001CE022755A692270DF6A1E6B5D6BD96BD5
:101550001A6C9B6B2382A4F816E06780A680E58155
:10156000E1802281F8BD00BF08B508461146FEF7AC
:1015700017FF002008BD00BF08B50846FEF750FF62
:10158000002008BD08B5074B984200D008BD4FF4B5
:10159000803000F025F94FF48030BDE8084000F0BD
:1015A000AFB800BF00400440014BF5221A607047FD
:1015B0005455000C024A41F21003D058704700BF46
:1015C000001000580F4B70B45022F5240E4E0F4DF2
:1015D0001C6001F580741A6091E80C000831A1428A
:1015E00032602B60F8D10749094D0A4AAA235526D3
:1015F000A0240B602E600C6003601368DB07FCD432
:1016000070BC70475455000CF055000CF455000C9C
:10161000A8AA000C102000580A4B0B490B4AF0B541
:10162000AA2555244FF0F50E80273026C3F800E098
:101630001D600C601F601D600C6006601368DB0796
:10164000FCD4F0BD5455000CA8AA000C1020005882
:1016500001F0FC030344F0B501F003051E691C4FC3
:10166000ED00F824AC4026EA04041C61466F4FEA02
:10167000410E032404FA0EF426EA0404B842446737
:101680001DD0144CA0421AD05768167ACC0800EB33
:1016900084048F40476001F00701276C8900072010
:1016A000884027EA00002064206C06FA01F101431B
:1016B000216412781969AA400A431A61F0BD046EC8
:1016C000012606FA01F124EA01010166F1E700BFF3
:1016D000008E0248008F0248024A53691843506145
:1016E000704700BF74400050030F03EB4303034AED
:1016F00020F0704042F82300704700BF10440050B3
:10170000030F03EB4303034A20F0704042F8230029
:10171000704700BF14440050030F064A03EB430315
:1017200020F0704052F82330184214BF01200020EE
:10173000704700BF0C440050034A936923F4803380
:1017400018439061704700BF00460050034A536A37
:1017500023F4403318435062704700BF00460050E6
:10176000054AD2F8C4301B07FBD4044AD36823F0DF
:1017700040031843D06070470040005000430050C1
:10178000034A9369013823F00703034393617047C9
:1017900000460050034AD369013823F03F03034356
:1017A000D361704700460050034A536A013823F062
:1017B000FF0303435362704700460050014B5860DB
:1017C000704700BF00460050030F03EB4303034A7A
:1017D00020F0704042F82300704700BF444600509C
:1017E000030F03EB4303034A20F0704042F8230049
:1017F000704700BF48460050030F064A03EB4303FF
:1018000020F0704052F82330184214BF012000200D
:10181000704700BF404600500F4B5A6942F001022A
:101820005A615A6901380006013942F0100240EA53
:1018300001205A6158615A6942F040025A615A695E
:1018400022F010025A615A6942F480225A611A69E0
:101850005207FCD5704700BF10470050024B4FF4B1
:1018600040325A60704700BF00420050024B4FF4B4
:1018700040329A60704700BF00420050F0B583B01C
:10188000644C089EC0B1E06840F4807040F00100F4
:101890000129E06000F086805E4A9368013E23F0F3
:1018A0007F031E439660536843F00103536013683F
:1018B000DB07FCD503B0F0BDE06820F4807020F0B9
:1018C00001000129E060E7D18DE80C0007F02AF85B
:1018D000514DA5FB00359DE80C00AD0CAD054D4903
:1018E0004E4C4F684E4847F001074F604F6847F035
:1018F00010074F60D1F808E003FB05F5571EB5FB54
:10190000F2F50EEA0000A4FB054240EA07605C1E07
:10191000930E40EA0420013B40EA03438B604B688E
:1019200043F040034B604B6823F010034B604B685F
:1019300043F480234B600868364B4207FBD55A6856
:1019400022F001025A6019460B68324A13F0010472
:10195000FAD1344BA3FB0513DB0E9E423FD3324F2B
:10196000324B6D08A3FB0523DB0E9E421DD3294A93
:101970009368013E23F4FE0343EA06469660FEF7B1
:1019800069FD3B68244AA2FB0332920C322303FB1D
:1019900002F20023002A8DD000BF01339342FBD115
:1019A00003B0F0BD4FF0C06599E71A498A68013B62
:1019B00022F4FE0242EA03438B60FEF74BFD3B68D4
:1019C000154AA2FB0332920C322303FB02F2002AD7
:1019D000CDD0002300BF01339342FBD1C7E791680C
:1019E000114F21F4FE01013B41EA03439360FEF7EE
:1019F00031FD3B68084AA2FB0332920C322303FB01
:101A000002F2002AACD0234600BF01339342FBD13F
:101A1000A6E700BF1047005083DE1B43ABAAAAAA6B
:101A2000FF8080F089888888C0FF0320B7600BB6EC
:101A30007749784ACB68F0B523F48033CB601368DC
:101A40000546D80783B004D4012353601368DB072D
:101A5000FCD5714A1368990505D54FF4007393605E
:101A600013689F05FCD4EB79002B40F09180687AD5
:101A70006A4AD2F8C4301B07FBD46949674BCA686D
:101A800022F080020243CA60D3F8C440002CFBD18C
:101A9000644A297A5368012943F48013536000F0A3
:101AA0009D80614EFEF7D6FC3368604AA2FB03328C
:101AB000920C642303FB02F222B1002300BF013326
:101AC0009342FBD1524B2C7CDA68A87922F0FF01BB
:101AD000621E0A43DA601A696C7C22F00101621E00
:101AE0000A431A611A6AAC7C22F00101621E0A43A1
:101AF0001A625A69EC7C22F00101621E0A435A61A3
:101B000028BBE978A1B9474A536843F4803343F0CE
:101B100002035360EB68B3F5803F04D13C4AD368BD
:101B200043F48033D36003B0BDE8F040FEF792BCCD
:101B30003C4AA888536823F4803323F0020353609F
:101B4000AC786A782B780094FFF798FEE2E7354C82
:101B5000374F636823F4803363607E6806F0E2FEEB
:101B6000344AA2FB0032120D26F47023013A23F00E
:101B7000300343EA02437B60636823F4003363600D
:101B80002246136803F46073B3F5607FF9D1B8E7B8
:101B9000224AD2F8C4301E06FBD421491F4ACB6921
:101BA00023F03003CB61D2F8C4301C07FBD41C49AE
:101BB0001A4ACB6843F00803CB60D2F8C430580708
:101BC000FBD4174B154A08219960D2F8C430002B7A
:101BD000FBD1134A13681907FCD448E75368124E27
:101BE00023F480135360FEF735FC104A3368A2FBE0
:101BF00003239A0C642303FB02F31BB100BF0134DF
:101C00009C42FBD1074A536843F40023536049E7E1
:101C10000046005000420050004400500040005078
:101C20000043005010470050C0FF032083DE1B43D9
:101C3000004700506BCA5F6B38B5044610200D4654
:101C4000FFF7BCFD194B9C421AD0194B9C421ED089
:101C5000184B9C4222D0184B9C420AD0E36843F4B4
:101C60008073E360216821F4404141EA85312160BD
:101C700038BD1248FFF7B4FD1048FFF741FDEDE70E
:101C80000420FFF7ADFD0420FFF73AFDE6E708204A
:101C9000FFF7A6FD0820FFF733FDDFE71020FFF771
:101CA0009FFD1020FFF72CFDD8E700BF00C00040CB
:101CB00000000140004001400040004801000010C9
:101CC00002688BB222EA114119430160704700BFDC
:101CD00070B44B790E79096841611C461D46324645
:101CE000C3F3401306F00F0605F00F05C4F300110F
:101CF0001B051209436046620562816170BCC262C5
:101D0000704700BF436823F00303194341604369F0
:101D1000012A0CBF43F4806323F48063436170475E
:101D2000436823F00C0343EA81014160436923F4D3
:101D3000407343EA02224261704700BF4B1E2DE907
:101D4000F043DBB24FEA43085FFA88F808F1100964
:101D5000076892F801C09678D47892F800E05FFAAC
:101D600089F9032505FA09F21531C9B227EA0202F9
:101D70000CFA09FC012742EA0C0C8F4008F1190803
:101D80005FFA88F28E402CEA0707990095403E439F
:101D9000C9B226EA050504FA02F20F232A438B4052
:101DA0000EFA01FE22EA030343EA0E030360BDE8D4
:101DB000F08300BF836A23F4706343EA01238362E4
:101DC00041627047092930B4D0F8A8400DD8094BBA
:101DD000094D53F8213055F82110DB4323408A4048
:101DE0001A43C0F8A82030BC70470C216FF4405350
:101DF000F4E700BF7C0903085409030838B504461A
:101E000010200D46FFF7DAFC104B9C4216D0104B09
:101E10009C420AD0E36843F48073E360236823F4B0
:101E2000404343EA8531216038BD4FF48070FFF7AD
:101E3000D7FC4FF48070FFF763FCEBE78020FFF7DF
:101E4000CFFC8020FFF75CFCE4E700BF000002400D
:101E5000004002404B7B70B40D7B012606612C468E
:101E60001A46C3F300130E6846611B0505F00F0503
:101E7000240902F00F0243604562C46202624B68AB
:101E800083618B6883F01403836470BC704700BF68
:101E900041637047836A23F4706343EA01238362DA
:101EA0004162704709B142647047C263704700BF26
:101EB000092930B4D0F8A8400DD8094B094D53F882
:101EC000213055F82110DB4323408A401A43C0F8E3
:101ED000A82030BC70470C216FF44053F4E700BFDA
:101EE000A4090308CC0903080C4B984210B504461A
:101EF00009D00B48FFF774FC0948FFF701FC0123E8
:101F0000C4F8983310BD0748FFF76AFC0548FFF78F
:101F1000F7FB0123C4F8983310BD00BF0040015007
:101F200020000020100000204FF480738B4001221D
:101F3000C0F8A0338A40D0F8A0331A42FBD17047D2
:101F4000F8B5A14B984204460E46154653D09F481B
:101F5000FFF7E2FB08B10120F8BD9C48FFF74CFCFD
:101F600080F00100C0B20028F5D0D4F89833002BDF
:101F7000F1D0D4F8A033F340DB0701D50220F8BD3F
:101F8000582202FB06F26968A150A318A968EA7EEC
:101F9000D5F80CE02F8B99608B49C3F810E0DF6116
:101FA0002868986142F440628C421A642FD02B8CCE
:101FB00023B9AB7803F05003102B2FD0AB8B23B990
:101FC000AB7803F06003202B53D0AA7E0123B340EB
:101FD000013AC4F83833C4F84033C4F84833C4F87D
:101FE0005033C4F85833072A6CD8DFE802F0959EC6
:101FF0006D767F8CA7B47648FFF78EFB0028AAD1B8
:102000007348FFF7F9FB80F00100C0B2ABE7012E87
:10201000CDD82A699A646A691A65C8E76A4B6D491E
:10202000582202FB06429C42576C95F8223000F081
:10203000B38003F0030047EAC0275764CF684FEA34
:10204000800E0F221B0902FA0EF227EA020203FA9F
:102050000EF31343CB600A694FF48073834013433C
:102060000B61582303FB06431A6C22F480621A6446
:10207000A4E7554B5749582202FB06429C42576C35
:10208000AB7F71D003F0030047EAC0175764CF68F5
:102090004FEA800E0F221B0902FA0EF227EA020213
:1020A00003FA0EF31343CB600A694FF48073834045
:1020B00013430B61582303FB06431A6C22F400629E
:1020C0001A6482E70020F8BD582101FB0644002075
:1020D000236C43F040432364F8BD582101FB0644C0
:1020E0000020A36943F00063A361F8BD582101FB00
:1020F00006440020236C43F080432364A36943F02B
:102100000063A361F8BD582101FB06440020A369C8
:1021100043F08053A361F8BD582101FB0644002021
:10212000236C43F000432364F8BD582101FB0644AF
:102130000020236C43F080432364F8BD582101FB49
:1021400006440020236C43F000432364A36943F05A
:102150008053A361F8BD582101FB06440020A36908
:1021600043F0C053A361F8BD03F0070047EAC0176E
:1021700057648F684FEA800E0F221B0902FA0EF295
:1021800027EA020203FA0EF313438B600A69012364
:10219000834013430B618DE703F0070047EAC02734
:1021A00057648F684FEA800E0F221B0902FA0EF265
:1021B00027EA020203FA0EF313438B600A69012334
:1021C000834013430B614CE7004001502000002086
:1021D000100000200049005040F201138B40D1074D
:1021E00048BFC0F81033910748BFC0F818335107F3
:1021F00048BFC0F82033110748BFC0F82833D206C3
:1022000048BFC0F830337047034B98420CBF034BB4
:10221000034B43F8212070470040015028D3002091
:1022200048D30020582303FB01010A4A4B6CC3F337
:10223000C311094B904208BF0122186918BF4FF41F
:1022400080728A4020EA0201196119690A431A6101
:10225000704700BF00400150004900505A4A5B4996
:10226000D0F8603330B45A4DA8420CBF0D46154625
:1022700013F010021DD0D0F80813C1B1CB0700F144
:10228000978001231C4600E0013304FA03F20A425E
:10229000FAD09A00A958DBB2012202FA03F3C0F87F
:1022A000583321B1102030BC08471A0765D430BC20
:1022B000704713F0010420D0D0F8E8120029F6D0BE
:1022C000CC0778D401231C4600E0013304FA03F262
:1022D0000A42FAD09A00AA58DBB2012101FA03F3AC
:1022E000C0F83833C0F84033C0F84833C0F8503332
:1022F000002ADCD0084630BC104713F002021DD182
:1023000013F00404D1D0D0F8F8120029CFD0CC07B4
:1023100055D401231C4600E0013304FA03F20A42BB
:10232000FAD09A00A958DBB2012202FA03F3C0F8EE
:1023300048330029BBD0042030BC0847D0F8F01245
:102340000029B4D0CB0738D401231C4600E0013368
:1023500004FA03F20A42FAD09C002959DBB20122A6
:1023600002FA03F3C0F84033C0F84833C0F85033E2
:1023700000299CD0022030BC0847D0F80013002967
:1023800095D0CB071DD401231C4600E0013304FA8D
:1023900003F20A42FAD09C00DBB22959012202FA68
:1023A00003F3C0F85033002981D0082030BC08471F
:1023B000002213466EE713468DE72346CDE713460A
:1023C000B0E72346E8E700BF48D3002028D3002029
:1023D0000040015070B5164605460C46FFF7D2F88E
:1023E000A200286833680F21914020EA0101934040
:1023F0000B432B600434736845F8243070BD00BF74
:1024000070B50C46164605460834FFF7BBF833682E
:1024100045F8243070BD00BF034600201A68596893
:102420009B6891609361704710B5064C2046FFF79A
:10243000D7F92046FFF764F9034A136823F0010334
:10244000136010BD400000200000025012F0030F86
:1024500001D00220704710B4046822B151F8040B77
:102460002060043AFAD1A2691A6000205DF8044B9A
:10247000704700BF10B44900446F03238B4024EA27
:1024800003034367436F5DF8044B8A40134343677C
:10249000704700BF00206FF300006FF3410040F071
:1024A0001C006FF3451040F4E070C0F30800704763
:1024B000044BD3F8A42153686FF341035360002009
:1024C000704700BF5CD30020044BD3F8A4215368AD
:1024D00043F0020353600020704700BF5CD300202C
:1024E000444A017B70B492F8FE41002004F00104DC
:1024F00000297CD053681E0756BF53680123C3F3DD
:102500000013012954D9956B3A4E2D0761D4B56B50
:1025100015F0100F18BF0123022949D0D56E354E92
:102520002D0762D4F56E15F0100F18BF0123032993
:102530003ED0D2F8A0502F4E2D0754D4D6F8A0503C
:1025400015F0100F18BF0123042931D0D2F8D45050
:10255000284E2D0745D4D6F8D45015F0100F18BFCB
:102560000123052924D0D2F80851224E2D0736D454
:10257000D6F8085115F0100F18BF0123062917D0FF
:10258000D2F83C511B4E2D0727D4D6F83C5115F0FC
:10259000100F18BF012307290AD0D2F87011154D6A
:1025A000090718D4D5F8701111F0100F18BF0123C6
:1025B00003F0010392F8FE21C2F3800262F30000EF
:1025C00064F3410063F38200012363F3C40070BC31
:1025D00070470123A0E70123EAE70123DBE701239A
:1025E000CCE70123BDE70123AEE701239FE70346C4
:1025F000E0E700BF5CD30020044BD3F8A4311A6895
:1026000011B960F30A121A60002070475CD30020F1
:1026100000F00F02E9B1342310F0800F03FB02F346
:102620001D48C35C03F00F030BBF00EB83036A3349
:10263000D3F8C41150F823100B6843F400130B6057
:10264000342303FB02020020137943F020031371AB
:10265000704710B4342310F0800F03FB02F30E48D0
:10266000C35C03F00F030BBF00EB83036A33D3F8A3
:10267000C44150F82340236861F3555343F080531D
:102680002360342303FB02025DF8044B13796FF3DC
:1026900045130020137170475CD3002000F00F0039
:1026A000342202FB00F20D4B995C1A4411F0800FAA
:1026B00051680CBF21F0100121F008015160342253
:1026C00002FB003300201A79D8626FF345121A71A9
:1026D0001861986198621863704700BF5CD300204E
:1026E000F0B53D4B00F00F00342101FB00F15A180A
:1026F00013F801E01479D3F8A47114F0040F0EF06C
:102700000F06FD694FF000015AD004F0FB046FF38F
:1027100045141471546824F010045460546861F333
:10272000CF3141F0904124F008044FF0010C1EF02D
:10273000800F6FF3555154600CFA06FC2FD006F150
:102740006A0E6FEA0C0453F82EE0CEF800101279EE
:102750001FFA84FE0EEA050C92076CF30F050DD1EB
:102760001E4A126803EB8606527BD6F8C4610EEA55
:10277000154E012A31606EF31F4528D0342202FB2A
:102780000030FD618088B3F8FC11C0F38310012292
:10279000824021EA0202A3F8FC210020F0BD127958
:1027A00094070FD106F16A026FEA0C041FFA84FE47
:1027B00053F822200EEA050C6CF30F051160CFE7E9
:1027C0000120F0BD6FEA0C041FFA84FEC8E77A6BA3
:1027D00014407C63D2E700BF5CD3002058D30020B4
:1027E000034BD3F8A4319868C0F30D20704700BFA5
:1027F0005CD30020054B93F8FE0100F00500A0F12A
:102800000500B0FA80F04009704700BF5CD300209B
:102810000748D0F8A42108B5536843F00203536079
:1028200000214FF402720CF0CAF9002008BD00BF6D
:102830005CD300202DE9F04F9A4DDFF86C82D5F87B
:10284000A431DFF868A2D3F81CE0DFF8649200F04E
:102850000F0C342707FB0CF7EE1906F108030024D0
:10286000EC51746043F8044B43F8044B43F8044BB9
:1028700043F8044B43F8044B43F8044B43F8044B30
:1028800043F8044B43F8044B43F8044B1C60337982
:10289000E85543F0040333717468334662F3D1247E
:1028A00043F8044F00285C684FF6C07008BF402012
:1028B00060F312045C60EB5D03F00F03180208F58F
:1028C000E06B08EB000400EB0B085AF823003062C1
:1028D00059F823007061F461C6F80C80E85D0006C9
:1028E0001FD400297FD005EB83040120D4F8C461F4
:1028F0003468984044F4004461F3934480B262F336
:102900000A0444F080546FF3555440EA1E4034608A
:1029100060F31F4ED5F8A4310020C3F81CE0BDE8D9
:10292000F08F03F16A0055F82060346844F40044E5
:1029300061F3934400295FD062F30A04B5F8FC0107
:1029400044F0805410F001076FF3555400F08E806E
:10295000870740F18E80470740F18F80070740F1DD
:102960009080C70640F19180870640F1928047062B
:1029700040F19380070649D407274FF0800848EAC2
:102980000000A5F8FC01342000FB0CFC05EB0C0951
:1029900067F39954B9F804A0DFF8088167F3891A3E
:1029A000A9F804A001203460984015F80C4080B2CA
:1029B00040EA0E06240666F30F0E29D50029A9D198
:1029C00008EB8303D3F8C461346844F4004461F332
:1029D0009344102A3CD034D9202A2ED0402A90D1BA
:1029E0006FF30A048DE703F16A0055F8206034683C
:1029F00044F4004461F39344102A31D015D9202ABD
:102A00002AD0402A9AD16FF30A0497E70027BAE741
:102A100008EB8303D3F8C461346844F4004461F3E1
:102A2000934400297FF46BAFD3E7082A86D10327AC
:102A300055F8206067F30A0480E7012363F30A0472
:102A40005FE7082A7FF45DAF032363F30A0458E7C6
:102A5000022363F30A0454E7012060F30A046DE7DC
:102A6000022755F8206067F30A0467E74FF0010872
:102A700085E701274FF0020881E702274FF004089D
:102A80007DE703274FF0080879E704274FF0100887
:102A900075E705274FF0200871E706274FF040083B
:102AA0006DE700BF5CD300202CDB0020E497FE1F05
:102AB000C897FE1FF8B50E4F342404FB0074064679
:102AC0002569A36995420846E16828BF154619445F
:102AD0002A460CF069F823695B1B23610BB1A369DB
:102AE0002B44342202FB06762846B361F8BD00BFB2
:102AF0005CD300202DE9F04F074683B069486A4C4B
:102B00006A4E6B4DFEF76CFE6648FEF7F9FDFEF768
:102B1000A5FE684B00211F604FF40272402320463F
:102B200033607360B360F36033617361B3612B60D2
:102B30006B60AB60EB602B616B61AB610CF03FF8DD
:102B40003B687D7B9A687868BE68B5FA85F103F5C5
:102B5000006A490903F5106942F08102C4F80002D5
:102B6000C4F80462C4F8A4A1C4F8A89161F34512A2
:102B700003F5126803F5146C03F5166E03F5186778
:102B800003F51A6003F51C6B03F5306103F532663B
:102B900003F5346A03F53669C4F8AC81C4F8B0C1F2
:102BA000C4F8B4E1C4F8B871C4F8BC01C4F8C0B149
:102BB000C4F8C411C4F8C861C4F8CCA1C4F8D09159
:102BC00003F5804103F5386803F53A6C03F53C6E74
:102BD00003F5805703F5005003F5405B03F5A0466D
:102BE00003F5C04A03F5E049C4F8EC11C4F8A0317C
:102BF000C4F8D481C4F8D8C1C4F8DCE1C4F8E071E9
:102C0000C4F8E401C4F8E8B1C4F8F061C4F8F4A170
:102C1000C4F8F8919A60D96841F0804141F480711C
:102C2000D960D3F8002842F003026FF3D752C3F8FB
:102C30000028D3F80428002142F00202C3F8042837
:102C40000091009A42F020020092009921F4F8616C
:102C500041F480610091009A1A611A690092009A09
:102C6000C2F34012002AF8D10192019A42F01002F8
:102C70000192019A1A611A6901920198C0F3001039
:102C80000028F8D10C490D4A9861012D18BF0A4659
:102C900042F440224FF0FF3159619A6103B0BDE820
:102CA000F08F00BF800000205CD30020C897FE1F7B
:102CB000E497FE1F58D300200E3C00C01E3C00C00D
:102CC000F0B400F00F003424334E04FB00F432194A
:102CD00082B05368C3F30013002B36D115796D070A
:102CE00033D5956801955569D768D362A94228BF45
:102CF0002946019D1361C5F312058D4228BF0D467B
:102D0000116395625762345D240722D0002D37D1BC
:102D1000012262F3DC43214A1268527B2ABB34222F
:102D200002FB00F03118325C496A02F00F0206EB38
:102D30008202D2F8C421516113611368002043F06C
:102D40000443136002B0F0BC7047012002B0F0BC35
:102D50007047012262F3D443104A1268527B43F059
:102D6000C04361F30603002AD9D0342202FB00F0ED
:102D7000325C02F00F0206EB8202D2F8C421DBE7DC
:102D80005268C2F3C6214A1E2A44B2FBF1F262F332
:102D9000DC4365F31203BEE75CD3002058D3002068
:102DA0002DE9F84300F00F073426394D06FB07F6EE
:102DB000AC1923795B0753D56368180757D4236A86
:102DC000E0699A4228BF1A4691460BF0EDFE63680F
:102DD000D4F81CC0C4F824C043F008030021636089
:102DE000E162C4F83090A85DA36800F00F0000F124
:102DF0006A0EC3F3120255F82E804A4528BF4A4690
:102E0000D8F800E0A262AAB3AB5D1B072BD06368C1
:102E1000C3F3C624631E9BB213FA82F3C2F31202F9
:102E200093FBF4F3C3F309031A4C2468647B62F345
:102E3000120163F3DC410CBBC8F814C0342303FB5C
:102E400007F7EA19EB5D106B03F00F036A334EF0DE
:102E5000044E55F823301961C3F800E0BDE8F8834B
:102E60000120BDE8F883C2F312020123DCE7002051
:102E7000BDE8F883012363F3DC41DFE7012CDDD1FA
:102E8000D5F8A421536B84401C435463D6E700BF9C
:102E90005CD3002058D300202DE9F04FB94CD4F872
:102EA000A0319D695A698FB002EA050A5FFA8AF675
:102EB0000190300700F1EB82019A527B012A00F069
:102EC000F382CAF30725690744BF4FF480625A6151
:102ED0002A0700F1D2824FEA1A66370600F1C38250
:102EE000700600F1B082E90600F1F181AA0600F156
:102EF000D3811AF4802F40F005811AF4002F18D1E5
:102F00001AF0040F02D10FB0BDE8F08F5D686807BA
:102F10000BD594F8FE31D4F800226FF3820384F8C5
:102F2000FE3101209047D4F8A0315D600FB0BDE8BC
:102F3000F08FD4F8A4219369D76952690292C3F340
:102F40000F43002213EA1747039200F09780DDF841
:102F500004B0CDF810A016463B4615464FF0340C91
:102F6000B846DF0740F1818006F1700904EB890261
:102F7000029952689BF80D3097680F405FFA87FA04
:102F8000002B40F08180116903911AF0080F21D0C5
:102F90007C4A0CFB0620039A0179C2F34172D200ED
:102FA00063F34511C2F11802017102610CFB064383
:102FB000CDF804C05A6822F010025A600020D4F8FC
:102FC00004320146984704EB890308215A68DDF86A
:102FD00004C091601AF0010F46D09BF80D30002B11
:102FE00063D00CFB0643996A0CFB06431A6B8A42BA
:102FF00072D09868C1EB020EC0F3120086450CFB3C
:1030000006FE88BF091804EB0E0098BF11468162C6
:1030100014F80EE01EF00F0F4FF0000300F1280A25
:1030200040F0AE82012161F3D44343F0C04362F328
:103030000603554A1268527B0CFB06F6002A40F044
:10304000A682A25D02F00F02A11904EB8202486A77
:10305000D2F8C41148610B610B6804EB890943F095
:103060000443D9F804200B6097600135EDB258FA9B
:1030700005F32E467FF475AFDDF810A0D4F8A0312B
:103080004FF400225A613BE71AF0080FA2D03D4AE4
:103090000CFB0621012B0A796FF345120A7185D1C9
:1030A0000B69CA6A13440B6180E70CFB0640039B63
:1030B000C26A816AC3F31203C2EB010EC3EB0E03B3
:1030C00002EB030E426AC0F82CE0134443620CFB8F
:1030D00006431A6B8A428CD1CDF804C05A68D96A6B
:1030E000196122F010025A60264B2846D3F80432A8
:1030F00001219847234BDDF804C003EB8909D9F877
:103100000420B1E7D4F8A4319A691B69039397B2FC
:10311000002F61D00026B6463B464FF0340BCDF869
:1031200010A0B946DB074FD50EF16A030BFB0EF07A
:103130000293D4F8A4A154F8233014F800809D68B9
:10314000DAF83410019A039F527B08F00F0C21FA31
:103150000CF1C901C9B2394320440D40B2B9EF079F
:103160001A6930D522F06042002A00F01882816A84
:103170000BFB0E42136B8B4233D1536823F00803D1
:10318000536017E05CD3002058D30020012A02D1FD
:10319000290600F12A82E90715D50BFB0E40036BC7
:1031A000816A8B421DD14368012A23F008034360E2
:1031B00000F07382D4F8043246F080000221984770
:1031C000029B54F823309D600136F6B259FA06F39B
:1031D000B646A7D1DDF810A0D4F8A03100225A617C
:1031E0008BE60BFB0EF2A018A25C8068C1EB030813
:1031F000C0F3120C02F00F02E045069202F16A02DF
:1032000028BF01EB0C030BFB0EFC54F822200592A7
:1032100004EB0C0112688B62002001F12808002BDE
:1032200000F0DD8114F80CC01CF00F0F00F0CF810E
:103230004968D8F80470C1F3C62C0CF1FF38D91BCB
:103240000B461FFA88F818FA81F1C3F3120391FBB9
:10325000FCFCCCF3090CC2490968497B63F31200FA
:103260006CF3DC40002940F00D820BFB0E43059906
:103270005B6A4B610BFB0EFE029B14F80E1054F8B8
:10328000233001F00F016A3142F0044254F821105A
:1032900008610A609D6097E7D4F8A81194F8FE21B0
:1032A0000B68D4F800526FF30A0342F005020B607A
:1032B000022084F8FE21A847D4F8A031DA68092159
:1032C00061F38D224FF40051DA60596111E6D4F8B0
:1032D000A411D4F8C4914A68D4F8D471D4F8D86150
:1032E000D4F8DC0142F0010204F5E47898E80051DA
:1032F0004A60D9F8002042F000626FF35552C9F8D5
:103300000020D8F80020DFF8689242F000626FF3E6
:103310005552C8F80020DCF80020DFF8588242F04F
:1033200000626FF35552CCF80020DEF80020DFF881
:1033300048C242F000626FF35552CEF800203A685E
:10334000DFF838E242F000626FF355523A603268BB
:10335000844F42F000626FF3555232600268824E31
:1033600042F000626FF35552026040204FF4801229
:10337000586260F30F0200209A62C3F80491C3F808
:103380000881C3F80CC1C3F810E1C3F81471C3F885
:1033900018610D900D9A42F020020D920D9A22F4C0
:1033A000F86242F480620D920D9A1A611A690D92C8
:1033B0000D9AC2F34012002AF8D10C920C9A42F0F6
:1033C00020020C920C9A22F4F8620C920C9A1A6168
:1033D0001A690C920C9AC2F34012002AF8D10B928F
:1033E0000B9A42F010020B920B9A1A611A690B9217
:1033F0000B9AC2F30012002AF8D14FF00113CB61EF
:103400004B69019843F00F03407B4B610B6943F01C
:103410000F030B610B68012862F30A130B6008BFEE
:103420004A636368D4F8002223F010036360636882
:1034300023F00803636004209047D4F8A0314FF4D0
:1034400080525A6152E594F8FE31D4F8002243F0DC
:10345000040384F8FE3100209047D4F8A0314FF0E7
:1034600080425A613FE5D4F8003208209847D4F8EA
:10347000A0314FF000425A6132E5D4F80032062004
:103480009847D4F8A0314FF400625A6123E5D4F88C
:10349000003209209847D4F8A03108225A61019AD5
:1034A000527B012A7FF40DADF1067FF50AAD6FF373
:1034B00004159D611A6AC2F34341022900F0FF809E
:1034C000062949D102F00F0704EB8701C2F30A1263
:1034D000D1F8C41125480968D4F8E0810E043BD521
:1034E000342101FB070EDEF82400A8B35FEA920C3A
:1034F0000BD04FEA8C0C002101E0DEF82400D8F854
:103500000060465004316145F7D162451BD0D8F8C0
:10351000008018D94FF0340E63460EFB074E00268C
:103520004FF0FF0909FA06F101EA0801DEF824006C
:10353000DFF838C0F140C15401339A4206F1080661
:10354000F0D1DCF8A031342606FB0746F16A706A38
:1035500011440244F162726245F010059D61B0E4CD
:1035600058D3002090001000A00010005CD3002071
:10357000500010006000100070001000800010006B
:10358000A9B961F31203012262F3DC4351E5A25DA4
:1035900002F00F0204EB8202D2F8C4115BE5C26AAA
:1035A000816A436AC1628A1A1A444262E0E542684B
:1035B000DAF80400C2F3C622091A02F1FF3E8E4473
:1035C000BEFBF2F262F3DC4361F3120331E5D8F89B
:1035D00004105B1AC3F312034FF0010C3BE663F3D4
:1035E0001200012363F3DC4044E608F00F0808F101
:1035F0006A015E4F57F82110C76AD1F818C05B49BD
:10360000069708F1780851F828100791816AC91BBC
:10361000059151D001F103081FFA8CFC4FEA98087C
:10362000E04544D80BFB0E41B8F1000F00F09B8041
:103630000691CDF82490496ADDF81CC0029FDDF8A0
:103640001890CDF820E000200968CCF80010D9F8D7
:103650002410013004314045C9F82410F4D10698F3
:10366000DDF820E0C06ADDF8249002970690074656
:10367000BC46059F0BFB0E40BC443944C0F82CC02F
:10368000416288E501297FF4F5AD069FDAF8343010
:10369000B9401943CAF83410ECE5344BD3F8A411FF
:1036A0004B6B02FA0EF223EA02024A6382E54FEA0A
:1036B0008C010591E046B5E7416A069FD8E702F024
:1036C0000F0704EB8701C2F30A10D1F8C421D4F824
:1036D000E0C11268254912047FF53EAF342202FB97
:1036E000071EDEF8241000293FF436AF5FEA900889
:1036F0000FD04FEA8808002201E0DEF82410DCF841
:1037000000608E5004324245F7D1342202FB07425A
:10371000516A40451ED0DCF800C01BD94FF0340E72
:1037200043460EFB074E00264FF0FF0801E0DEF88F
:10373000241008FA06F202EA0C02F240CA540133DD
:10374000984206F10806F2D1342202FB0742D4F86F
:10375000A031516A342202FB07470144FA6A7962B8
:103760000244FA62F8E6496A069F81E75CD30020CA
:1037700010B5054C2046FDF7B7FF2046FEF724F8AC
:10378000BDE81040FEF772B88000002038B50D4645
:1037900004460120FEF724F80120FDF7B1FF6B6914
:1037A00023606B6843F40043C4F88030AB68C4F80E
:1037B000A030EB68C4F8A4302B69C4F880322B68C1
:1037C000C4F8B83038BD00BF2AB1064A28330A40D1
:1037D00040F823207047283340F21F720A4040F817
:1037E0002320704700001F07D0F880300C4943F0B9
:1037F0000043C0F8803001F1100051F8042BD2F8DA
:10380000803013F4403F02D18142F6D17047D2F8A4
:103810008030DB00F8D5D2F88030DB00F7D4F3E756
:10382000340A03082DE9F04F4B79D0F8A05091F8F5
:1038300004A0CE78CC7A91F807B091F8069091F870
:1038400009800A7A91F80AC0B1F802E00F7825F4ED
:10385000E06503F0070345EA032323F01F030AF0A2
:103860001F0A43EA0A05C0F8A050D0F8A0300BF0B8
:10387000070B23F0E06343EA0B6323F4F81309F02A
:103880001F0543EA0545C0F8A050D0F8A43008F061
:10389000070823F4E06343EA082302F01F0223F041
:1038A0001F031343C0F8A430D0F8A45004F007025B
:1038B00025F0E06444EA026424F4F8140CF01F02DA
:1038C00044EA0242C0F8A4200B69C0F88030CEF36D
:1038D000090E07F00707CB68C0F8B83047EA0E4773
:1038E000C0F8F071D0F8F021C6F3001342F00042A6
:1038F00042EA0372C6F3810342EA8362C6F34013CD
:1039000042EA4372C6F3801342EA8373C0F8F0318F
:10391000BDE8F08FF0B4BAB1C1F304421025C1F391
:1039200002616FF4F81618246FF0E06700EB830370
:10393000A140D3F8A0403C402143AA40314011436C
:10394000C3F8A010F0BC704715466FF01F0601F0D9
:103950001F020824C1F302216FF4E067E6E700BF0D
:10396000D0F8803023F003031943C0F8801070476B
:10397000D0F8C0308A4288BF013123F003031943D5
:10398000C0F8C010704700BFD0F8C03023F0030368
:10399000C0F8C030704700BF0E4B984210D003F5FE
:1039A0008063984211D003F5806398420FD0D0F81D
:1039B000C020033101238B401343C0F8C03070474F
:1039C0000123994238BF0131F1E70223F9E70323CC
:1039D000F7E700BF004800408A4238BF0132D0F804
:1039E000C0100332012393400B43C0F8C03070472E
:1039F000D0F884300A7823F00073C0F88430D0F80F
:103A0000843010B423F03003C2F3810412F00302B7
:103A100043EA041320D043F08003C0F884304B689D
:103A200043F0802343F40003C0F820318B68022A5E
:103A300043F00103C0F8243105D1D0F8243143F418
:103A40008033C0F82431D0F884305DF8044B43F063
:103A50000073C0F884307047C0F884304B6843F07E
:103A6000802343F40003C0F820318B6843F0010346
:103A7000C0F82431E7E700BFD0F8C03123F0F003ED
:103A800043EA0111C0F8C011704700BFD0F884307C
:103A90000A7823F08073C0F88430D0F8843010B4F2
:103AA00023F00303C2F3810412F0030243EA040388
:103AB00020D043F00803C0F884304B6843F08023E3
:103AC00043F40003C0F800318B68022A43F001037D
:103AD000C0F8043105D1D0F8043143F48033C0F884
:103AE0000431D0F884305DF8044B43F08073C0F8A3
:103AF00084307047C0F884304B6843F0802343F42F
:103B00000003C0F800318B6843F00103C0F80431B2
:103B1000E7E700BFD0F8C03123F00F031943C0F826
:103B2000C011704730B4137BD0F8885001248C400A
:103B300025EA04048B402343C0F88830537B1C06DD
:103B40000AD4012923D0C9B10025D0F8B0405BB216
:103B5000AB402343C0F8B030D0F8C840536823438B
:103B6000C0F8C830D0F8D04093682343C0F8D030B4
:103B70008031136840F8213030BC7047D0F8B03045
:103B800023F01F03C0F8B030537B0D46DDE7D0F8BB
:103B9000B03023F4F853C0F8B030537B0825D4E795
:103BA000072910B410D901F180410839D0F8B44187
:103BB00089000F238B4024EA03038A401A43C0F88C
:103BC000B4215DF8044B7047D0F8B04189000F2351
:103BD0008B4024EA03038A401A43C0F8B0215DF801
:103BE000044B70470C4A08B513688BB1033020F0C2
:103BF00003000A491844884202D21060184608BDE2
:103C00000AF0BCFF0C2303604FF0FF33184608BDD9
:103C1000034B1360EAE700BF0098FE1FC0FF0320BC
:103C200030E90020F0B50C78013C87B00646154617
:103C30000B2C0AD8DFE804F00D163139426E768B72
:103C40009CA5BB06012D00F0DD804FF6FF7007B08C
:103C5000F0BD012DF9D1002118460A460B46FCF7AC
:103C600019FFF4E7012DF0D106AA002142F8081D42
:103C70000DF10A041846009413460A46FCF7D2FFD9
:103C80000446002844D1BDF80A308DF80D30D91C07
:103C9000304689B21B0A022229E0012DD5D100212C
:103CA00018460A46FDF706F8D1E7012DCDD10022CE
:103CB000184629461346FCF7EDFEC8E7012DC4D18E
:103CC00006AC002244F8082D0DF10A0718462946D3
:103CD00023460097FCF7A6FF0446C8B9BDF80A3092
:103CE0008DF80D30D91C304689B21B0A05228DF89B
:103CF0000E308DF80C2001F07BFA03A8032101F0AF
:103D00008BFA0498BDF80A1001F086FA01F086FAE1
:103D100020469CE7012D98D1184629460022FCF741
:103D2000C9FF94E7052D90D18E78CA784D780C792B
:103D300045EA062542EA042418460021012204AB84
:103D4000ADF81050ADF81240FCF7A4FE7FE7012D4E
:103D50007FF47BAF0DF10A01184600912A4600213D
:103D600003ABFCF75FFF04460028D1D108232EE007
:103D7000012D7FF46AAF18462A460021FCF79AFF0E
:103D800065E7052D7FF461AF8E78CA784D780C79A0
:103D9000012142EA042445EA062518460A4604ABF6
:103DA000ADF81050ADF81240FCF774FE4FE7012D4E
:103DB0007FF44BAF0DF10A021846009229462A46BD
:103DC00003ABFCF72FFF04460028A1D10B23039A75
:103DD0008DF8103013888DF811301B0A8DF81230D1
:103DE00053888DF8133030461B0A05218DF81430A6
:103DF00001F0FEF904A8052101F00EFA01F00EFA17
:103E0000204624E7184629462A46FCF753FF1EE7BA
:103E1000704700BFF0B5174B85B00546084602A9AC
:103E20001D70FCF747FC044608BB029B9DF80D2063
:103E30009DF80C608DF801304FEA136E28461F0C78
:103E400007211B0A01258DF804E08DF802308DF85A
:103E500006208DF803708DF800508DF8056001F094
:103E6000C7F96846072101F0D7F901F0D7F92046D4
:103E700005B0F0BD0498FE1FF0B50546087887B080
:103E800028B3012804D04FF6FF74204607B0F0BDD8
:103E9000072AF8D1CC780A7948788E784F798D79CD
:103EA0000193210441EA0262024342EA062204A984
:103EB00018468DF8147004928DF81550FCF7ACFB81
:103EC000019B04460421184601F068FBDDE7012A46
:103ED000D9D1164C0192184604A92570FCF7EAFBCB
:103EE000019A04460028D0D1049B9DF814709DF8D7
:103EF00015608DF808204FEA136E1A0A284607212C
:103F00001D0C8DF809308DF80CE08DF80A208DF825
:103F10000B508DF80D708DF80E6001F069F902A854
:103F2000072101F079F901F079F9AEE70498FE1F55
:103F3000042A00D07047F0B5154B85B004460846FA
:103F400002A91C70FCF7B6FB00BB029B9DF80D207C
:103F50009DF80C508DF8013020461F0E1E0C0721D5
:103F60001B0A01248DF802308DF806208DF80470AC
:103F70008DF803608DF800408DF8055001F038F998
:103F80006846072101F048F901F048F905B0F0BD95
:103F90000498FE1F2DE9F04F0E788046701E9FB0EA
:103FA0001546412846D8DFE810F04B0016012801DD
:103FB00045004500450045004500450045004500D9
:103FC00045004500450045004500450045004500C9
:103FD00045004500450045004500450045004500B9
:103FE00045004500450045003F0145005D01450095
:103FF0004500450045004500450045004500450099
:104000004500450045004500C2014500D801450076
:1040100001024500150245004500450045004500E8
:1040200045004500450045003A027B024200012D53
:1040300000F066824FF6FF7420461FB0BDE8F08F97
:10404000022DF7D14A78184617A9FCF785FC0B908A
:10405000002840F0BE809DF875400C2C00F01483C1
:10406000A94629469DF874C00B9D1B9B199A9DF883
:1040700077E08DF85190BEF1000F02FB03F60CBF04
:104080000120022001FB06F100FB01F604FB06F013
:1040900010F0070118BF012101EBD00118988DF82D
:1040A00056C089B24FEA10694FEA104C0E918DF854
:1040B00057E08DF849004FEA102E1231100E9DF88E
:1040C00076708DF84D2089B28DF852308DF85840B9
:1040D0008DF84C908DF84BC04FEA12494FEA136CA3
:1040E000120A8DF84AE08DF850004FEA134E404610
:1040F0001B0A00248DF84E208DF855C08DF854E031
:104100008DF853308DF848408DF84F908DF85970E8
:1041100001F06EF812A8122101F07EF89DF875A04A
:10412000BAF10C0F00F02382012707FA0AF7013FCA
:10413000ADF84040BFB23EB36D002246A14601E05B
:104140009DF875A0179B5B5B3B40924493401C43DA
:10415000CAF3CF0110A8ADF8404001F05DF8BDF8FA
:1041600040400AF0F8031C4109F10109A4B2B1452D
:1041700005F102050AF00702ADF84040E0D11AB19E
:1041800010A8012101F048F8C44C01F047F822685A
:104190001C9B93421DD01E0E1D0C1A0A4FF0310EAF
:1041A0004046062100278DF842308DF840E08DF81A
:1041B00043208DF841708DF845608DF8445001F032
:1041C00017F810A8062101F027F801F027F81C9B2A
:1041D00023600B9C30E7052D7FF42CAFCA780C7957
:1041E00048788978120442EA0462024342EA0121D3
:1041F0001846FCF7FDFB04461EE7082D7FF41AAFB6
:1042000048798F79CC780E794D788A78C979009180
:10421000000440EA076004432946184644EA06239E
:10422000FCF728FC044607E7012D7FF403AFFCF7F9
:104230004BFA21228DF85C2002788DF85D204278BF
:104240008DF85E20034604219B788DF85F30404650
:1042500000F0CEFF17A8042100F0DEFF002400F0DC
:10426000DDFFE9E6012D7FF4E5AE184617A9FCF75E
:10427000A7FA044600287FF4DFAE1899199B8DF841
:1042800049104FEA116B8DF84CB04FEA114B8DF885
:104290004BB0090A4FEA136B9DF86E508DF84A1027
:1042A0008DF84D30190C8DF850B01B0A9DF868A0A0
:1042B0009DF869909DF86AC09DF86BE09DF86C7060
:1042C0009DF86D609DF86F00179A8DF857504FF06C
:1042D000230B8DF84F108DF84E308DF848B08DF8C7
:1042E00051A08DF852908DF853C08DF854E08DF8A0
:1042F00055708DF856608DF858001378254623B117
:104300000135ADB2535D002BFAD105F112014046E3
:1043100089B200F06DFF12A8112100F07DFF691C29
:1043200089B2179800F078FF00F078FF84E6022D3C
:104330007FF480AE4D781846294612AAFCF74CFA55
:10434000044600287FF478AE129B8DF85D504046FD
:104350001F0E1E0C1D0A312214E0022D7FF46AAEDE
:104360004D781846294612AAFCF74CFA0446002854
:104370007FF462AE129B8DF85D5040461F0E1E0CFE
:104380001D0A332206218DF85E308DF85C208DF8F1
:1043900061708DF860608DF85F5000F029FF17A8FC
:1043A000062100F039FF00F039FF45E6012D7FF4CA
:1043B00041AE184612A9FCF73BFA044600287FF4E8
:1043C0003BAE129B8DF85D301E0E1D0C40461B0A45
:1043D000352212E0012D7FF42DAE184612A9FCF70C
:1043E00033FA044600287FF427AE129B8DF85D3027
:1043F0001E0E1D0C40461B0A372205218DF85E302B
:104400008DF85C208DF860608DF85F5000F0F0FE54
:1044100017A8052100F000FF00F000FF0CE6012DB9
:104420007FF408AE184617A9FCF790FA0446002856
:104430007FF402AE189A179B9DF864609DF8655052
:104440008DF849304FEA124C4FEA122E40464FEA9F
:10445000136A4FEA12684FEA134941271B0A0B21DE
:104460008DF84A308DF84D208DF84FC08DF84EE014
:104470008DF84CA08DF84B908DF850808DF84870D9
:104480008DF851608DF8525000F0B2FE12A80B2149
:1044900000F0C2FE00F0C2FECEE500BF0898FE1F8D
:1044A0000B2D7FF4C7AD91F803C0CE7991F804804D
:1044B0000A7A4D78487991F806E091F809908F7A58
:1044C0008C7802934FEA0C41360441EA086146EACF
:1044D00002622943024341EA042442EA0E2217A958
:1044E000184617948DF8649018928DF86570FCF753
:1044F000C7F9029B04460121184601F04FF89BE5DD
:10450000184617A9FCF7BAFA199A179B9DF861404B
:104510009DF860508DF849304FEA136E4FEA1269EA
:104520004FEA122C40461F0C4FEA12481B0A432642
:104530000B218DF84F208DF850C08DF84CE08DF890
:104540004A308DF84E408DF852908DF851808DF89C
:104550004B708DF848608DF84D5000F049FE12A860
:104560000B2100F059FE002400F058FE64E51B9B6F
:10457000029319469DF87730089318469DF86830E5
:1045800004931D46199B0D93A0421E464FEA410914
:10459000179B079308BF012209FB05F318BF0222EE
:1045A00002FB03F30C93002E4ED08B1E5B080133ED
:1045B00003EB43030129039398BF234611F0010243
:1045C00008BF9B46DFF810E19DF87430CDF83C80C1
:1045D000099418BF4FF0FF3B0A9405939046049B43
:1045E00033B3099B04334FF0000A06930123059A65
:1045F00003FA0AF31A4216D0089B002B069B0CBF45
:104600004FF0010C4FF0020C09FB0AF70CFB0737C7
:10461000079B00261F44B8F1000F1AD001366645EB
:10462000DE444F44F7D1049B0AF1010A5345DDD122
:10463000099A0C990A9B0A4409920D9A01339342F4
:104640000A93CCD1DDF83C800E99234800F0E4FDBC
:104650009AE5029B012BE1D9039B39460EEB03053A
:10466000724631F8020C31F8043C43EA0033180E6C
:10467000D0701C0C180A9470507002F8033BAA42C8
:1046800001F10401EDD1C9E79DF874C0BCF1010F3F
:10469000E1460AD0BCF1020F0ED0A94629461B9B69
:1046A000199A9DF877E00B9DE3E461460B9D1B9BF7
:1046B000199A9DF877E0DCE49DF877E01B9B199A46
:1046C000BEF1000F02FB03F10CBF0125022505FB23
:1046D00001F5B1460121CCE40C98FE1F2DE9F0470D
:1046E000013A86B080460D46042A4ED8DFE802F033
:1046F00003505084500003A92846FCF727F90028EE
:1047000000F0A1806F4628463946FCF791F8C0B901
:10471000009B8DF80D3035221E0E1C0C40461B0AE6
:1047200005218DF80E308DF80C208DF810608DF875
:104730000F4000F05DFD03A8052100F06DFD00F0C5
:104740006DFD39462846FCF77FF8C0B9009B8DF80F
:104750000D30372240461E0E1C0C05211B0A8DF819
:104760000E308DF80C208DF810608DF80F4000F0A1
:104770003FFD03A8052100F04FFD00F04FFD584B11
:10478000187810B12946FFF745FB06B0BDE8F08761
:1047900000266F46F4B2214628463A464FF03309C8
:1047A000FCF730F80028F0D1009B8DF80E301A0A83
:1047B0004FEA136C4FEA134E4046062101368DF83E
:1047C0000F208DF811C08DF810E08DF80D408DF898
:1047D0000C90F4B200F00CFD03A8062100F01CFDC3
:1047E00000F01CFD214628463A46FCF70BF800284D
:1047F000DAD006B0BDE8F087694628466F46FCF778
:1048000017F8002852D028463946FCF71DF8002832
:10481000BBD1009B8DF80D30372240461D0E1C0C7D
:1048200005211B0A8DF80E308DF80C208DF81050E4
:104830008DF80F4000F0DCFC03A8052100F0ECFC33
:1048400000F0ECFCA1E7039B049A9DF814609DF82E
:1048500015408DF80130190E4FEA126A4FEA1249DD
:104860004FEA122C4FF0410E1F0C40461B0A8DF8E8
:1048700004100B218DF803708DF802308DF805209F
:104880008DF806C08DF800E08DF808A08DF807902F
:104890008DF809608DF80A4000F0AAFC68460B21EB
:1048A0006F4600F0B9FC00F0B9FC2CE7009B8DF8D6
:1048B0000D3035221E0E1C0C40461B0A05218DF8BA
:1048C0000E308DF80C208DF810608DF80F4000F040
:1048D0008FFC03A8052100F09FFC00F09FFC92E7ED
:1048E0000498FE1FF0B50546087887B010B301287C
:1048F00004D04FF6FF74204607B0F0BD062AF8D169
:10490000CC7848788D780A7949798DF8141021048B
:1049100041EA0262024342EA052204A918460193D1
:104920000492FCF7CDFC019B04460321184600F0DD
:1049300035FEE0E7012ADCD1184604A90192FCF714
:10494000DDFC019A04460028D5D1049B9DF8146033
:104950008DF808201F0E1A0A284606211D0C8DF816
:1049600009308DF80A208DF80C708DF80B508DF8F9
:104970000D6000F03DFC02A8062100F04DFC00F0A7
:104980004DFCB8E7032A00D0704770B584B00446E8
:10499000084602A9FCF7B2FCE0B9029B9DF80C2086
:1049A0008DF8013020461E0E1D0C06211B0A012425
:1049B0008DF802308DF805208DF804608DF80350D5
:1049C0008DF8004000F014FC6846062100F024FC3D
:1049D00000F024FC04B070BD2DE9F0478CB0064611
:1049E000084606A9FCF7D4FC0446A8BB3249069B3E
:1049F000079A09689DF820509DF821008DF8013034
:104A00004FEA136A4FEA13494FEA12681B0A4FEA4A
:104A1000124C4FEA122E01278DF804A08DF8039056
:104A20008DF802308DF805208DF808808DF807C0CC
:104A30008DF806E08DF800708DF809508DF80A00A9
:104A400071B90B253046294600F0D2FB294668464D
:104A500000F0E2FB00F0E2FB20460CB0BDE8F0877E
:104A6000099B0A990B9A8DF80B304FEA136A4FEAAB
:104A70001349150C1B0A4FEA11684FEA114C4FEA13
:104A8000112E170E100A8DF815508DF80EA08DF806
:104A90000D908DF80C308DF80F108DF812808DF878
:104AA00011C08DF810E08DF813208DF816708DF878
:104AB00014001B25C6E700BF0C18FF1F2DE9F043AB
:104AC000054608788BB0032805D8DFE800F04314CA
:104AD000020A012A49D04FF6FF7420460BB0BDE808
:104AE000F083012AF7D1314C284619462260FFF79E
:104AF00073FF0446F1E70B2AEDD191F803C0CE799C
:104B000091F804800A7A4D78487991F806E091F896
:104B100009908F7A8C7801934FEA0C41360441EA70
:104B2000086146EA02622943024341EA042442EA58
:104B30000E2204A9184604948DF8189005928DF859
:104B40001970FCF7E1FB019B04460221184600F0B6
:104B500025FDC2E7012ABED1144A19462846002382
:104B60001360FFF739FF0446B7E7184603A9FCF7BF
:104B700015FC04460028B0D1039B8DF811300222A9
:104B800028461E0E1D0C05211B0A8DF812308DF8CB
:104B900010208DF814608DF8135000F029FB04A844
:104BA000052100F039FB00F039FB96E70C18FF1FD8
:104BB00070B5022A84B0144606460D4626D0042A53
:104BC00003D0012A01D004B070BD284601A9FCF72A
:104BD000E5FB0028F7D1019B8DF809301D0E1C0C58
:104BE00002221B0A304605218DF80C508DF80B402F
:104BF0008DF80A308DF8082000F0FAFA02A8052195
:104C000000F00AFB00F00AFB04B070BDFFF7E4FE01
:104C1000284601A9FCF7C2FB0028D4D1019B8DF8DE
:104C200008401D0E1C0C1A0A304605218DF809306B
:104C30008DF80C508DF80B408DF80A20DCE700BF92
:104C400030B50C7883B00546052C06D8DFE804F0B3
:104C5000091017313803012A39D04FF6FF7003B01D
:104C600030BD012AF9D118460021FCF7D1FBF6E747
:104C7000012AF2D118461146FCF7CAFBEFE7012AD8
:104C8000EBD1184602240DF10301FCF7D3FB9DF88C
:104C900003308DF80530284621468DF8044000F099
:104CA000A7FA01A8214600F0B7FA00F0B7FA0020F1
:104CB000D5E7012AD1D11846FCF7C4FB0020CEE786
:104CC000012ACAD11846FCF7C5FB0020C7E71846E1
:104CD000FCF7C8FB05238DF80500022128468DF856
:104CE000043000F085FA01A8022100F095FA00F0E6
:104CF00095FA0020B3E700BF704700BF30B50C78CD
:104D000085B07CB1012C03D04FF6FF7005B030BDEB
:104D1000032AF9D18C784978184641EA0421FCF736
:104D2000A7FBF3E7012AEFD105460DF10A0118466A
:104D30000192FCF7B1FB019A044608B12046E5E771
:104D4000BDF80A308DF80C2028461A0A03218DF888
:104D50000D308DF80E2000F04BFA03A8032100F06F
:104D60005BFA00F05BFA2046D0E700BF704700BF57
:104D70002DE9F04F0646087893B01546032806D86B
:104D8000DFE800F0B0500A02012D00F022814FF65A
:104D9000FF7013B0BDE8F08F012DF8D1AD4F0024A6
:104DA00018464FF0020E00233B608DF814303B6232
:104DB0003B643B667C60BC60FC603C617C61BC61C8
:104DC000FC617C62BC62FC623C637C63BC63FC6330
:104DD0007C64BC64FC643C657C65BC65FC657C668D
:104DE000BC66FC663C677C67BC678DF82CE0394686
:104DF000FC6705AAC7F88440C7F88840C7F88C400C
:104E0000C7F89040C7F89440C7F89840C7F89C404E
:104E1000C7F88030FCF7A8FB0446002800F0FA80B1
:104E20002046B6E7112DB2D991F80BC08C7A4A7B97
:104E3000029244EA0C240A7BC87B0194029C91F8FC
:104E400003B091F80790039091F802E08E7991F801
:104E500005A091F80980887B0F790D7A91F816C02A
:104E600042EA0424039AADF838404EEA0B2E46EA93
:104E7000092691F810B091F81190ADF82EE047EAAC
:104E80000A2745EA082540EA0222BDF8040091F805
:104E900001A091F8158091F817E0ADF836004BEAC3
:104EA000092BADF8307091F81490ADF83260ADF880
:104EB0003450ADF83A204C7E0A7EADF83CB018462E
:104EC0000BA942EA04238DF82CA08DF83E908DF8B2
:104ED0003F808DF840C08DF841E0ADF84230FCF7DE
:104EE000E3FA56E7012D7FF452AF184605A9FCF707
:104EF00019FB0446002893D1BDF816C0BDF818E090
:104F0000BDF81A70BDF81C50BDF81E00BDF8222077
:104F1000BDF82430BDF820108DF82EC04FEA1C2BB0
:104F20008DF82FB04FEA1E2C4FEA172B9DF814A0D6
:104F30009DF826909DF827808DF830E08DF831C0DF
:104F40004FEA152E4FEA102C8DF832708DF833B0E1
:104F50000F0A4FEA122B8DF834501D0A8DF835E0F8
:104F60008DF837C08DF836008DF83A208DF83C303A
:104F70008DF83D508DF82C408DF83F408DF83E4027
:104F80008DF838108DF839708DF83BB08DF82DA064
:104F90008DF840908DF841809DF82810BDF82A309A
:104FA0009DF829208DF842101D0A30461B218DF8EE
:104FB00044308DF843208DF846408DF8455000F080
:104FC00017F90BA81B2100F027F900F027F920465C
:104FD000DFE612A9002221F8342D1846FCF7CCFA9E
:104FE000044600287FF41CAFBDF814308DF82D3036
:104FF000032530461B0A29468DF82E308DF82C509B
:1050000000F0F6F829460BA800F006F900F006F9C2
:105010002046BEE69DF8141049013046023100F0EA
:10502000E7F829460BA800F0F7F8294605A800F094
:10503000F3F89DF814302546002BE7D007EB451018
:10504000202100F0E9F801359DF81430ADB2AB42F3
:10505000F4D8DBE764D50020012A00D07047F0B512
:10506000344C83B0002300254FF0020E074616464D
:1050700008460DF10602214625608DF8065025628E
:10508000256425666360A360E36023616361A361B7
:10509000E3616362A362E36223636363A363E36325
:1050A0006364A364E36423656365A365E365636682
:1050B000A366E36623676367A3678DF807E0C4F818
:1050C0008050E367C4F88430C4F88830C4F88C306A
:1050D000C4F89030C4F89430C4F89830C4F89C30C8
:1050E000FCF742FA054608B103B0F0BD9DF8061082
:1050F00049013846023100F07BF80DF107003146D6
:1051000000F08AF80DF10600314600F085F89DF8B0
:10511000063053B104EB4510202100F07DF8013535
:105120009DF80630ADB2AB42F4D800F077F803B08A
:10513000F0BD00BF64D5002030B5174C83B0A18905
:10514000A06805F01DFBA268A389216A02441B1A0E
:105150000546A260A381E9B18847D5B92369984281
:1051600017D36179B1B1626A1344984212D304290A
:1051700008D002A8094B40F8043D042105F0FEFACE
:1051800005F00EFB0023064A63710423A260A3818D
:1051900000E0206103B030BD1018FF1F5B0001006C
:1051A0002418FF1F38B50F4C049D63620023226250
:1051B00020602171A5626371A360A38182B19047D1
:1051C000094D20610423094AE5614FF40070002174
:1051D000E0626171A260A381BDE8384005F0CCBAFD
:1051E0001046EDE71018FF1F4018FF1F2418FF1F7F
:1051F00010B582B00B460C0A8DF805005A2201A8A2
:1052000004218DF806308DF807408DF8042005F054
:10521000B5FA02B010BD00BF05F0B0BA00B583B05A
:1052200002A8DB2300F8043D0221E0238DF80530BD
:1052300005F0A4FA05F0B4FA03B05DF804FB00BF72
:105240002DE9F0419B4C6379042B92B02BD0FFF7F2
:1052500073FF6379032B24D8DFE803F0070289701A
:10526000A38953B112B0BDE8F081A389914A032B01
:10527000F8D801215171002BF4D1237D8D4E607D32
:10528000E17DA27D5A2B78D08B4B12AD45F8403D85
:10529000042328461946737105F070FA05F080FA68
:1052A0007379042BDED1834E02AD4027402128467E
:1052B000A560A78105F064FAA389A268216A1B1A78
:1052C0009BB202448046A381A26011B38847B8F123
:1052D000000F21D13369984219D3717909B3726AE9
:1052E000134498421DD3042908D012A8734B40F8E8
:1052F000443D042105F042FA05F052FA0023704AB9
:1053000063710423A260A38112B0BDE8F081B38968
:105310003061002BCAD0A5E7B3893061002BC5D01E
:10532000A0E7A389002BC1D09CE703F1180002215C
:105330000322986099815A71FFF7FEFEA3895D4EA2
:10534000002BADD1717E337E777DF07DB27D43EA57
:1053500001234EF2DB018B421BD012AD594B95E776
:10536000F169B2810223B1607371FFF7E5FEA28992
:10537000504B002AD9D05B7993E73379834229D304
:1053800052EA012249D0F36A9A42E9D912AD4E4B52
:105390007CE742EA002207B33568F16914206FF018
:1053A000130310FB07332B4438469D68DB68A8477E
:1053B0005B220346050A042102A88DF80A308DF805
:1053C00008208DF80B508DF8097005F0D7F905F01D
:1053D000E7F993E712AD3D4B58E7F36993F8008086
:1053E000B8F1010F76D01BD3B8F1020F02D1012A18
:1053F00000F0C180FF2702AD5B2200232846042174
:105400008DF808208DF809308DF80B708DF80A7032
:1054100005F0B4F905F0C4F970E712AD2C4B35E78F
:10542000012AE7D132798DF8052002EB42035B00B7
:1054300002339BB202AD4FEA132C4FF05A0E2846AE
:1054400004218DF80A308DF80BC08DF808E08DF836
:1054500004708DF8097005F091F901A8022105F09A
:105460008DF933790BB33AB2216802EB820201372E
:1054700051F822308DF8083001EB8202180E190C19
:105480001B0A8DF80B008DF80A108DF809309388EF
:105490008DF80C3028461B0A06218DF80D3005F0DA
:1054A0006DF92379FFB2BB42DDD8FFF7B7FE47465F
:1054B000A2E700BF1018FF1F5B0002005B000100A5
:1054C0002418FF1F5B0007005B0006005B00030061
:1054D0005B000500012A8DD1DFF8BC808DF8082023
:1054E000B8F80430B8F80600B8F808108DF809309C
:1054F000060A1B0AD8F800208DF80C600D0A8DF8FA
:105500000A308DF80B008DF80D108DF80E501378C1
:105510003E4623B10136B6B2935D002BFAD106F1B7
:1055200008039BB24FEA132C4FF05A0E002201A839
:10553000042102AD8DF806308DF807C08DF804E027
:105540008DF8052005F01AF92846072105F016F90F
:10555000711CD8F8000089B205F010F9E022DB23B5
:1055600001A802218DF805208DF8043005F006F918
:1055700005F016F940E7B36A002B3FF43BAF12ADDC
:105580005B2345F8403D0421284605F0F7F805F077
:1055900007F9B36A98472FE78890FE1F2DE9F84373
:1055A000164D95F804E0BEF1000F1CD08946064662
:1055B0000124A84606E0DB68B34216D001347245E8
:1055C000E4B210D2631E2A68DBB203EB830302EB62
:1055D000830322461F69002FEDD12246724504F154
:1055E0000104E4B2EED3BDE8F8834A4620463146D2
:1055F000B84798F804E02246E0E700BF1018FF1F04
:10560000030A022B16D0032B09D0012B03D0002054
:10561000034613607047094B136012207047C0B2F5
:105620000228F4D8064B074953F82030136031F8AC
:1056300010007047044B13603E207047AC0A03080B
:10564000900B03089C0B0308A40B0308454A92F82F
:105650003E319B0710D570B54349847C8B889BB243
:105660009C4200D070BD4B78203B0446032BF9D8F8
:10567000DFE803F0183F630370470B783A49212BAA
:10568000F0D13A4892F83E31856823F0020382F85F
:105690003E31002DE6D0498820462B46C9B2BDE8F0
:1056A000704018470B78212BDCD192F83E0192F81C
:1056B0003C312F4920F002002C2582F83E0105FBE9
:1056C000032202E00B78002BCCD093689B06F9D51F
:1056D00000F030FCA06100F001FC207700F0FEFB40
:1056E000607700F0FBFB214BA0771B68002B34D1C7
:1056F000B8E70B78A12BB5D192F83E1192F83C3166
:1057000021F002012C2082F83E1100FB0322936855
:10571000D806FCD493689907F9D5A06900F0F4FB8A
:10572000207F00F0C5FB607F00F0C2FBA07F00F08F
:10573000BFFBBDE8704000F06BBB0B780A49212B22
:1057400090D192F83E31094823F0020382F83E31AD
:1057500043684A88A282002B84D02046BDE870406E
:10576000184700BFF4D80020ECD60020AC88FE1FFC
:10577000E9D6002038B502220023032103754375C2
:105780008375C375037643768376C3760377437751
:105790008377C3770271827201740121044600F09D
:1057A000DFFB01210546A01D00F0DAFB01210028E6
:1057B00004F10C0008BF002500F0D2FB002814BF44
:1057C0002846002038BD00BF1C4B1A78042A00D0A0
:1057D00070478269002AFBD070B40278184902F041
:1057E0000F042C2622F07F0206FB041581F83C41B1
:1057F00081F83D21AA68D40605D4AA68920702D58B
:105800001B78042B01D070BC70478369002BFAD041
:10581000037803F00F0206FB021623F07F0381F8E2
:105820003C2181F83D3133791B064CBFB38BB389E2
:10583000002BE8D070BC00F0EBBA00BFE9D6002026
